:100000003CC000006EC000006CC000006AC0000070
:1000100068C0000066C0000064C0000062C000004C
:1000200060C000005EC000005CC000005AC000005C
:1000300058C0000056C000000C94210D52C00000B2
:1000400050C000000C94A10C0C949B0C0C94A70CB9
:1000500048C0000046C0000044C0000042C000008C
:1000600040C000000C947F0C3CC000003AC000006F
:1000700038C0000036C00000140E11241FBECFEFA0
:10008000CDBFDFE3DEBF809140008093400081114F
:1000900005C098ED21E094BF209341008CBB14E390
:1000A000A0E0B4E3ECEEF3E302C005900D92A230C1
:1000B000B107D9F72DE3A2E0B4E301C01D92A93D39
:1000C000B207E1F710E0CDE3D0E004C02197FE01D4
:1000D0000E94B818CC33D107C9F70E94920F0C9434
:1000E000D6188ECF1F93CF93DF9311E0180F209176
:1000F000613D1217A9F1C091623DD091633D21503D
:1001000070E060E061F08F3FF9F430E050E040E0F3
:100110006FEF7FEF80E090E00E948318B901FE014D
:1001200040915C3D50915D3DCF018C1B9D0B841730
:100130009507A0F4DF014D91469FC001479F900DA8
:1001400011249083FD01ECCF812F90E0982F882718
:100150000197622F70E00E943A18E1CF1093613D41
:10016000DF91CF911F9108958F929F92AF92BF928E
:10017000CF92DF92EF92FF92CF9320915A3D309130
:100180005B3D82179307E8F54B01AA24BB24C82DD9
:10019000C52ED62EE72EFF24BC2DA42F2091613D25
:1001A000222361F0829E40011124C92D2C9D600103
:1001B0001124BD2D249FF0011124AF2FE091673D44
:1001C000E090623DF090633D3091643DE31323C0C5
:1001D0009C01220F331F820F931F8E0D9F1DE091F4
:1001E000643DE80FF92FF11DC083E091653DE80FF4
:1001F000F92FF11DB0832091663D820F911DFC0106
:10020000A083CF91FF90EF90DF90CF90BF90AF9001
:100210009F908F900895880F991F880F991F8E0DBA
:100220009F1D472F552766277727222349F030E067
:10023000249F7001259FF00C349FF00C11244F2D4A
:10024000E80FF92FF11D4083CACF9FB7F894E091D2
:100250009A0AF0919B0A8091960A2091313430914C
:10026000323440913334509134349FBF80FF08C002
:10027000CF018827892B21F42F5F3F4F4F4F5F4FCE
:100280000F01169407941694079416940794F0019E
:100290001694079416940794E019F109169407949C
:1002A0000694102C16941694011816941694010CAA
:1002B0001124E00DF11DA8EEB3E00E94AE186E0F00
:1002C0007F1F811D911D0895CF92DF92EF92FF92C3
:1002D0000F931F93CF93DF93CDB7DEB72797CDBF93
:1002E000DEBFFC012281338129833A832085318559
:1002F000232B09F460C08C0186818C300CF05BC02C
:10030000A4DFF801C684D784E088F188AB01BC0182
:100310004C195D096E097F0984819581B0E0A0E0E8
:10032000481759076A077B0758F3F894A085B185E9
:100330007D01FFEFEF1AFF0A8C918F83F801A289EC
:10034000B3899C918489982B9E839C918095892365
:100350008D838D818C8388E08B835E816D814F815D
:100360003B812C8189819A81F7015C9347FD252F80
:100370003A95000000C02C93262F41F0441F00C086
:1003800000006C9301D0F1CF00C0089538E0419196
:1003900000006C93000000C000C0019731F74F834C
:1003A0003B832C8389839A8378944FDFF801668797
:1003B0007787808B918B2796CDBFDEBFDF91CF9162
:1003C0001F910F91FF90EF90DF90CF900895AF9223
:1003D000BF92CF92DF92EF92FF920F931F93CF9332
:1003E000DF936C017B018B01040F151FEB015E0194
:1003F000AE18BF08C017D10759F06991D601ED9129
:10040000FC910190F081E02DC6010995892B79F7C7
:10041000C501DF91CF911F910F91FF90EF90DF9079
:10042000CF90BF90AF900895FC0157854089252F4C
:1004300030E0842F90E0821B930B541710F0CF967E
:10044000089501970895FC0195858685981761F0B8
:10045000A685AE0FBF2FB11D51968C9196859F5FDB
:100460009F73968790E008958FEF9FEF0895FC01AA
:1004700095858685981731F08685E80FF11D81896D
:1004800090E008958FEF9FEF0895FC0195852685F4
:10049000892F90E0805C9F4F821B91098F73992771
:1004A0000895FC010FB607FE04C080911101882356
:1004B000A9F0A085B18514968C91149785FF0EC084
:1004C00097858089981307C015968C9115978F7D15
:1004D00015968C930895E8940C94B40C08950F939A
:1004E0001F93CF93DF93EC018C8581608C879F8570
:1004F000888998130BC0E885F985848185FF06C03B
:100500008C8581FD0DC080E4848312C0062F1F8579
:100510001F5F1F738889811315C0CE01C2DFFACF18
:1005200085818F77806490E49483E885F98585835D
:10053000E885F985628381E090E0DF91CF911F919A
:100540000F910895EF85EC0FFD2FF11DEF5AFF4F2E
:1005500000831F878C85E885F98581FF09C0858127
:100560008F77806690E49483E885F9858583E3CF6F
:1005700085818062FBCFCF93DF93EC018C8580FF78
:100580000BC0E885F985858185FD03C0848186FDE2
:1005900003C0CE0186DFF5CFDF91CF910895DC0156
:1005A0001896ED91FC9184818860848308959C0164
:1005B0002B5E3F4FDC015396EC91539752968C91F2
:1005C000E81730F4E20FF32FF11D808190E00895D9
:1005D0008FEF9FEF0895FC01DC0155969389828986
:1005E000981740F4A90FB11D2C919F5F938B822F18
:1005F00090E008958FEF9FEF0895FC018289938921
:10060000891B990B0895FC01A289A03258F4A80F08
:10061000B92FB11D55966C9382898F5F828B81E0D3
:1006200090E0089590E080E00895BF92CF92DF922D
:10063000EF92FF920F931F93CF93DF937C016A0198
:10064000B62EEB010C2F0B1910E00C151D0528F42C
:100650006991C701D8DF892BA9F7C801DF91CF9134
:100660001F910F91FF90EF90DF90CF90BF90089572
:1006700087309105A8F4880F991FFC01F361208150
:100680000196FC01F3616081822F90E0982F88270A
:10069000680F792F711D072E000C880B990B089598
:1006A0006FEF7FEFCB010895DC01EC91EF71F0E08B
:1006B000F3612081621751F060832DE933E024BF9C
:1006C000309300102091021021FDFCCF0895CF92AD
:1006D000DF92EF92FF920F931F93CF93DF931F92BE
:1006E000CDB7DEB787309105B0F46A017B018C018C
:1006F000000F111F09839927F7FC9A958F2D7E2DE6
:100700006D2DCE010196D0DF0F5F1F4F09836C2D39
:10071000CE010196C9DF0F90DF91CF911F910F910C
:10072000FF90EF90DF90CF900895089590E080E0E3
:100730000895CF93DF93FC0180859185009761F048
:10074000DC01ED91FC910190F081E02D099581E0B3
:1007500090E0DF91CF910895EF01CE50DC4F88817A
:100760009981DF01AC50BC4F2D913C911197AC01A8
:10077000420F531F483E73E0570710F0485E534046
:10078000E40FF51F62872F5F3F4F2D933C93119726
:10079000293E3340E0F20196883E73E0970738F433
:1007A0008883998388EE93E08D939C93D0CF1882B1
:1007B0001982F8CF682F84E699E3BBCFFC01019042
:1007C0000020E9F73197AF01481B590BBC0184E6C3
:1007D00099E3FDCD8F929F92AF92BF920F931F939B
:1007E000CF93DF93CDB7DEB7A197CDBFDEBF19A200
:1007F000423008F44AE08E010F5D1F4F842E912C89
:10080000B12CA12CA50194010E946118E62FB90119
:10081000CA01EA30D4F4E05DD801EE938D01232BB8
:10082000242B252B79F790E080E0109711F0CD0173
:10083000C5DFA196CDBFDEBFDF91CF911F910F9194
:10084000BF90AF909F908F900895E95CE5CFCF92D5
:10085000DF92EF92FF92CF93DF9397FF17C06B0168
:100860007C018DE2A7DFEC0166277727CB016C19AD
:100870007D098E099F094AE0ADDF8C0F9D1FDF9136
:10088000CF91FF90EF90DF90CF9008954AE0DF91F5
:10089000CF91FF90EF90DF90CF909CCFBC01990F4C
:1008A000880B990BD4CF682F70E090E080E04AE08D
:1008B00091CF84CFCF93DF93EC0186EE92EBF9DFFB
:1008C0008881F1DF83EF92EBF4DF688579858A8593
:1008D0009B85BDDF87EF92EBECDF898990E0DEDF5F
:1008E0008AE0DF91CF9166CFFF920F931F93CF9352
:1008F000DF93D0E0C0E081E9F82E00912F35109110
:100900003035CE01B5DEFC9E9001FD9E300D1124E8
:10091000F801E20FF31F6087718782879387209128
:100920003534222311F0CF01C5DF2196C730D10520
:1009300021F7DF91CF911F910F91FF9008952F9292
:100940003F924F925F926F927F928F929F92AF925F
:10095000BF92CF92DF92EF92FF921F93CF93DF93DC
:10096000CDB7DEB76797CDBFDEBF181619060CF0FE
:1009700032C21C0189EC94E32EDE182F80930034E0
:1009800021E0221A3108CE0101968A8B9B8B5C01F3
:10099000D12CC12CC214D30474F49AE0C916D1042A
:1009A00051F089EC94E317DEAFEFCA1ADA0AF501C9
:1009B00081935F01EFCF9091DB348091DC34981705
:1009C00021F089EC94E307DEF6CF153109F484C1F8
:1009D00008F03FC0113109F476C0A0F5115016306F
:1009E00008F4E4C1EE24EA94FE2C80913534882387
:1009F00009F4E7C180912C34882309F4E2C181E332
:100A000093EB57DF82EC93EB54DF809100344BDFA4
:100A10008CE393EB4EDFD12CC12CC214D3040CF029
:100A2000C9C12AE0C216D10409F4C4C13FEFC31AF8
:100A3000D30AAA89BB898D91AA8BBB8B34DF8CE248
:100A4000B9DEEBCF133109F44EC008F442C082E0A6
:100A50006FC0163209F4AAC1C8F4133209F4AAC04F
:100A6000143209F468C0163109F0BCCF80912F35DB
:100A700090913035FC01EA57FF4F83589B4F10820D
:100A8000EF56FF4FE817F907D1F720C0123309F4EA
:100A900078C1133309F48AC1F12C113309F0A2CFC4
:100AA000FB866FEFCE010B96FFDD81E08F0D8B870C
:100AB0006FEFCE010B96F8DDF394F394FEE0FF1296
:100AC000EFCF12DF03C081E080932C35F12CE12CB5
:100AD0008CCF81E080932B35898190E080935535D0
:100AE00090935635F3CFE0912F35F09130359F013B
:100AF00029503C4F82814FEF5FEF6FEF7FE781110D
:100B000003C040E050E0BA0143AF54AF65AF76AFE9
:100B100017AEDF0153968AE04D935D936D937D93FD
:100B20008150D1F7EF56FF4FE217F30719F781E035
:100B300080932D35CBCFE090CD3DF090CC3DF09122
:100B4000CB3D86E090E04EE751E06BEA70E0DC01DF
:100B5000B595A795B595A7952A893B89A20FB31F8F
:100B60002C91E22FE37030E0359527953595279548
:100B70002C93EE23E1F0DC01AE52B24CEC932F2F1C
:100B8000E13021F02F2DE23009F02E2D283079F4BC
:100B90009C01220F331F265A324CD901AB5ABF4F4A
:100BA0004D935C932D593F4FD9016D937C930197E1
:100BB00070F68CCFDE011B968A899B890796EA899D
:100BC000FB8921912D93E817F907D9F7EB852C853F
:100BD0009D858E858F843989E93008F0E0E0E093C7
:100BE000CB3D283008F020E02093CC3D983008F031
:100BF00090E09093CD3D883008F080E08093CE3D2A
:100C00008092CF3D3093D13D332309F45CC0E8306E
:100C100009F4E7E024E0E29FF0011124E65AF24CE7
:100C200081A992A9A3A9B4A98C8B9D8BAE8BBF8BF4
:100C3000912CB12CA12C9C01AD01222733275527E3
:100C4000C501B4010E942B18412C512C32014A9449
:100C5000A30192010E94611869017A01CC24DD246C
:100C6000FF242C893D894E895F89222744275527F7
:100C7000C501B4010E942B18A30192010E946118C2
:100C8000222744275527C22AD32AE42AF52A9C89F9
:100C9000A92FB0E0A50194010E94AE18A301920112
:100CA0000E946118C22AD32AE42AF52AC092AB3DD9
:100CB000D092AC3DE092AD3DF092AE3D88898093FC
:100CC000D03D10DA03CF1092AB3D1092AC3D1092A4
:100CD000AD3D1092AE3DF2CF80912F3590913035E1
:100CE000B980A1E9BA9E800D911D1124FC01EA573B
:100CF000FF4F21E020836C01B7E8CB0ED11C2A8185
:100D0000F60120837C01F8E8EF0EF11C4B8150E0E6
:100D100070E060E0762F652F542F44272C81420F1E
:100D2000511D611D711DD7014D935D936D937C9392
:100D30001397FC01E457FF4F108211821282138235
:100D400080579F4FFC01108280913534882309F42D
:100D5000BDCE86E093EBADDD8B2DA5DD83E193EB7E
:100D6000A8DDD6018C919FDD8AE193EBA2DDF7012E
:100D700060817181828193814AE02CDD8AE01ADDF5
:100D8000A5CE81E09981911101C080E08093353436
:100D900086E293EB8EDD80913534811104C081E0D1
:100DA00093EB87DD93CE8DEF92EBFBCFEE24E394B4
:100DB000F12C1BCE84E493EB7CDDC7016FDD8AE070
:100DC000F9DC82E0BFEFEB16FB0619F0EF2819F40F
:100DD00081E0809300346796CDBFDEBFDF91CF9175
:100DE0001F91FF90EF90DF90CF90BF90AF909F90BA
:100DF0008F907F906F905F904F903F902F900895CD
:100E00004F925F926F927F928F929F92AF92BF921A
:100E1000CF92DF92EF92FF920F931F93CF936B01CC
:100E20007C01742EAC019B010E942718882391F04D
:100E300088E493EBCF911F910F91FF90EF90DF909B
:100E4000CF90BF90AF909F908F907F906F905F906A
:100E50004F90B4CC46015701E894B7F82FEF3FEF1D
:100E60004FE75FE7C501B4010E94271881110DC04B
:100E70002FEF3FEF4FE75FE7C501B4010E94761601
:100E800018161CF48CE493EBD5CF2FEF3FEF4FE710
:100E90005FE4C701B6010E94C01718161CF480E574
:100EA00093EBC8CF2FEF3FEF4FE75FECC701B601E1
:100EB0000E94761687FDF3CF20E030E0A901C7013C
:100EC000B6010E94761610E000E087FF07C08DE2B1
:100ED00071DC8C01F7FAF094F7F8F094C0E060E070
:100EE00070E080E09FE37C1641F020E030E040E2DB
:100EF00051E40E947A16CF5FF6CFA70196010E94B7
:100F000012162B013C010E94E2164B015C014AE0E3
:100F100061DC7C01E00EF11ECC23A9F1C501B40116
:100F20000E940E179B01AC01C301B2010E94111671
:100F30004B015C0184E593EB41DCE80EF91EC150E6
:100F400010F120E030E040E251E4C501B4010E941C
:100F5000C4172B013C010E94E2164B01B12CA12CBD
:100F60004AE0C501B40136DCE80EF91EC501B40142
:100F70000E940E179B01AC01C301B2010E94111621
:100F80004B015C01DCCFC701CF911F910F91FF9006
:100F9000EF90DF90CF90BF90AF909F908F907F9019
:100FA0006F905F904F9008958F929F92AF92BF92F3
:100FB000CF92DF92EF92FF920F931F93CF93DF9325
:100FC000CDB7DEB76C97CDBFDEBFFC019CE1DE0183
:100FD000119601900D929A95E1F7DE01159621E0A8
:100FE00030E0CD90DD90ED90FC9013978D01A9013C
:100FF000CA010197F801B290A29092908290BF012D
:10100000C814D904EA04FB048CF5F80180829182AB
:10101000A282B3828B01AC01009751F7880F991F10
:10102000880F991FE1E0F0E0EC0FFD1FE80FF91FBA
:10103000C082D182E282F3822F5F3F4F1496273025
:10104000310579F66D857E858F8598896C96CDBF43
:10105000DEBFDF91CF911F910F91FF90EF90DF9056
:10106000CF90BF90AF909F908F900895CA01D6CF38
:101070002F923F924F925F926F927F928F929F92A8
:10108000AF92BF92CF92DF92EF92FF920F931F9396
:10109000CF93DF93CDB7DEB76E97CDBFDEBFE091C4
:1010A0002F35F09130358E010F5F1F4FCF018950E2
:1010B0009C4FD80140855185628573854D935D9322
:1010C0006D937D93EF56FF4FE817F90799F7C80125
:1010D0006BDF2B013C0186E593EBEBDB8AE693EBC0
:1010E000E8DBC301B201B3DB82E793EBE2DB0D8FF8
:1010F0001E8FD12CC12CF12CE12CED8DFE8D619138
:10110000719181919191ED8FFE8F0E9410174B018B
:101110005C01C301B2010E9410179B01AC01C50123
:10112000B4010E947A164B015C01C701B7DB87EC62
:1011300093EBBFDB42E0C501B40162DE80E23ADB43
:1011400020E030E040EC5FE3C501B4010E94C0172D
:1011500020902F35309030351816BCF020E030E06C
:1011600040E05FE3C501B4010E94761687FD0DC023
:10117000ED8DFE8D349780819181A281B381813183
:101180009742A105B10508F4B5C0F101EC0DFD1DB4
:1011900021E0228B8FEFE81AF80AE1E9CE0ED11C8C
:1011A000F7E0EF16F10409F0A8CF8AE003DBE09145
:1011B0002F35F0913035CF0189509C4FD8014485AF
:1011C0005585668577854D935D936D937D93EF5639
:1011D000FF4FE817F90799F7C801E6DE2B013C013C
:1011E00085E793EB66DB8AE693EB63DBC301B20131
:1011F0002EDB82E793EB5DDBD12CC12CF12CE12CB3
:10120000F80161917191819191918F010E94101764
:101210004B015C01C301B2010E9410179B01AC019C
:10122000C501B4010E947A164B015C01C70136DB8F
:1012300087EC93EB3EDB42E0C501B401E1DD82E7E0
:1012400093EB37DB20E030E040EC5FE3C501B40115
:101250000E94C01720902F3530903035181614F1A9
:1012600020E030E040E05FE3C501B4010E94761663
:1012700087FD18C021E92E9DF0012F9DF00D11244E
:10128000E20DF31DD80114978D919C912085318535
:10129000821B930B97FF03C0919581959109883C20
:1012A00091052CF4F101EC0DFD1D81E0828BEFEF37
:1012B000EE1AFE0AF1E9CF0ED11C27E0E216F10486
:1012C00009F09ECF8AE076DA6E96CDBFDEBFDF9161
:1012D000CF911F910F91FF90EF90DF90CF90BF9033
:1012E000AF909F908F907F906F905F904F903F90C6
:1012F0002F900895F101EC0DFD1D128A4BCF962F12
:101300002091000649EF5AE864ED72E820FF51C0D1
:10131000913848F0292F2F772B30A0F04CEF5AE866
:1013200064ED72E846C04DEF5AE864ED72E898301B
:1013300008F43FC0923190F724EF290F220F9D301F
:1013400008F420E087FD4DC08430B0F58C5F30910B
:101350000A0637704EEF5AE864ED72E851F5809353
:101360000C062093090680E0983021F080E19D3042
:1013700008F080E4816080930A068091050680FF72
:10138000FCCF4091100650911106609112067091A9
:10139000130683EF890F833760F59C507595679529
:1013A000579547959150D1F780910B068E7F80938A
:1013B0000B06CB01BA01089538EF380F333010F423
:1013C0008750C5CF863089F0873089F08FEF30EDB8
:1013D000380F343008F4BBCF4FEF5AE864ED72E8B1
:1013E000E8CF8F738D3098F7B2CF8AE0B0CF8BE023
:1013F000AECF9830C9F29C30B8F68CE0891B04C09F
:1014000075956795579547958A95D2F7CDCFCF9229
:10141000DF92EF92FF92CF93DF93EC016B81898192
:101420006EDF6B017C016B81898169DFC60ED71E7F
:10143000E81EF91E6B81898162DF6C0D7D1D8E1D9A
:101440009F1D23E030E040E050E00E948318CA0175
:10145000B901DF91CF91FF90EF90DF90CF90089589
:10146000DF92EF92FF920F931F93CF93DF93F12CB4
:10147000E12C10E000E081E9D82EC0912F35D09109
:101480003035CE018E0D9F1DC2DFD09E9001D19EC2
:10149000300D1124C20FD31F6C877D878E879F87E5
:1014A000809135348823A9F08BE893EB02DA8881A8
:1014B000FAD983EF92EBFDD96C857D858E859F856A
:1014C000C6D987EF92EBF5D9898990E0E7D98AE010
:1014D00071D90F5F1F4F81E9E80EF11C073011052C
:1014E00061F680913534882329F18AE993EBE1D9BB
:1014F000D0E0C0E011E9E0912F35F09130351C9F2C
:10150000C0011D9F900D1124E80FF91F648575859A
:10151000868597859CD98CE24DD92196C730D10517
:1015200051F78AE0DF91CF911F910F91FF90EF90DB
:10153000DF9040C9DF91CF911F910F91FF90EF9005
:10154000DF9008958F929F92AF92BF92CF92DF92D9
:10155000EF92FF920F931F93CF93DF93CDB7DEB738
:101560006F97CDBFDEBF80910034843009F4E0C0B6
:1015700048F4823009F49DC008F0C2C0813029F1DE
:10158000D12C55C0863009F45EC108F419C18632E9
:1015900009F4E6C08333A1F781E08093023410920E
:1015A00003341092043485E08093053447E150E021
:1015B00064EA73EB86E094E30E94C71810921D342E
:1015C0004CE150E062E074E3F6C080912634811172
:1015D00064C08091533590915435FC01E55DFA4C1F
:1015E0002681298320852A8327E0289F8001299F3F
:1015F000100D1124095C1A4CE284E0922534F12C80
:10160000A701B8018EE194E30E94BE1842E050E0C9
:10161000BE016F5F7F4F89EC94E307D881E09A8128
:10162000911101C080E080932634DD24D394809111
:101630003534882309F450C180912C34882309F46F
:101640004BC1DD2009F448C189EB93EB32D980917D
:10165000003429D989EC93EB2CD9C7011FD98DEC23
:1016600093EB27D9E1E0DE1609F424C16801C60135
:10167000801B910B8E159F050CF02BC1F60180810C
:1016800090E0982F88272181820F911D07D98CE245
:1016900091D8F2E0CF0ED11CEACF4091253450E032
:1016A0006EE174E389EC94E30E94150310922634F2
:1016B00067CFE0912F35F0913035ABE2B5E3CF0144
:1016C00089509C4F24813581D0963C93D097D196F8
:1016D0002C93D197EF56FF4F12968E179F0791F7D5
:1016E0004EE050E06BE575E389EC94E30E9415034E
:1016F0000BE515E3B2E0DB2E8EE0E82EF12C97CF60
:10170000E0912F35F0913035ABE2B5E3CF01895050
:101710009C4F24853585D0963C93D097D1962C93B9
:10172000D197EF56FF4F1296E817F90791F7D8CFE8
:10173000E0912F35F0913035ABE2B5E3CF01895020
:101740009C4F20853185D0963C93D097D1962C9391
:10175000D197EF56FF4F1296E817F90791F7C0CFD0
:101760008091613D81508093D03D8EE0EBECFDE3B4
:10177000DE01119601900D928A95E1F7E0912F35E7
:10178000F0913035EA57FF4F30E020E040E08081B3
:10179000022E01C0880F0A94EAF7482B2F5F3F4FB3
:1017A000EF56FF4F2730310591F74F874FE050E05C
:1017B000BE016F5F7F4F89EC94E30E941503E0CE7A
:1017C00040912A35842F90E001966BE070E00E94F2
:1017D0004E18FE0131965E0135E1A30EB11C9E2E1E
:1017E0008F2EABE0CA2ED12C282F30E0842F90E032
:1017F000A901440F551F440F551F42505B4CDC019B
:10180000AA0FBB1FAA0FBB1FBD0162507B4CDA01A0
:101810004D915C91DB016D917C91461B570B41937F
:1018200051930196B6010E944E18482FC9010196A6
:10183000B6010E944E18EA15FB05B1F644E150E0EE
:10184000692D782DB8CF4091583D5091593D8091E8
:10185000563D9091573DFE01319620E0BF01411564
:10186000510519F16C01BFEFCB1ADB0A2F5F8C59C0
:10187000964CDC011A968C91819390E080E0B8EE52
:10188000CB16B3E0DB0608F4C601415051092E31F6
:1018900031F74093583D5093593D8093563D909376
:1018A000573D2F8F4FE150E086CF1092583D109258
:1018B000593DF3CFE00EF11EE016F10651F0D801CC
:1018C0008D918D0190E00E944E048CE20E94DA031B
:1018D000F3CF8AE00E94DA0381E0809300346F96B0
:1018E000CDBFDEBFDF91CF911F910F91FF90EF90A1
:1018F000DF90CF90BF90AF909F908F9008958F937F
:1019000081E08093960A8FB78F93EF93FF93E1E383
:10191000F4E380818F5F808381818F4F8183828117
:101920008F4F828383818F4F8383FF91EF918F91BC
:101930008FBF8F911895EF93FF93F898E6E3F4E348
:101940000BC0EF93FF93F898E6E3F4E334C0EF9312
:10195000FF93E6E3F4E35CC02F932FB72F938F93AD
:101960009F93AF93BF936894CF93DF9320E0C0859C
:10197000D8E09089DF01A90FB21FAF5ABF4F8C91F9
:1019800020E42C838A839F5F9F738D812785291391
:1019900002C08F7D8D83908BDF91CF9116F00C94D8
:1019A0006E02BF91AF919F918F912F912FBF2F9179
:1019B000FF91EF9118952F932FB72F933F938F930C
:1019C0009F93CF93DF93C085D8E0898198818674F7
:1019D000880F3485382B82FD0DC0C58581E08C0FC2
:1019E0008F732685281791F0CE0FDF2F20E0D21FAE
:1019F000998B85873487DF91CF919F918F913F910C
:101A00002F912FBF2F91FF91EF9118953064F2CF56
:101A10008F938FB78F939F93CF93DF93C085D8E039
:101A20009D8188818C8187FDFCCF9F7B90689D8301
:101A3000DF91CF919F918F918FBF8F91FF91EF9108
:101A400018951F920F920FB60F9211241F932F9388
:101A50003F934F935F936F937F938F939F93AF9336
:101A6000BF93CF93DF93EF93FF93C091C734D0918F
:101A7000C8342097B9F1A885B9851B961C911B978E
:101A800016FF53C08B8583FF09C0877F8B87EF8547
:101A9000F889309719F08A8990E0099510FF3BC0CA
:101AA0008A8981110BC080912734811107C08091F0
:101AB0005000809327348170809350001A8A1B8ACB
:101AC000E885F9858585898B11FF20C0ED85FE8528
:101AD000309709F009958A8981111BC086E0E88555
:101AE000F9858287FF91EF91DF91CF91BF91AF91FF
:101AF0009F918F917F916F915F914F913F912F9126
:101B00001F910F900FBE0F901F9018958B858860C6
:101B10008B8783E0E4CF809127348093500010922C
:101B200027341A8A1B8A82E0DACF17FF2EC09E0163
:101B30002B5E3F4F11FF1AC08A85182321F088E0E1
:101B40008A871A8AF0CF8C898F5F8C8B88E18A878D
:101B5000EB898A89E817A8F7E20FF32FF11D80813E
:101B60001D968C938B898F5F8B8BD3CF1D968C9119
:101B7000EA89E03250F4E20FF32FF11D80838A8965
:101B80008F5F8A8B803229F6A9CF80E0A8CFCF93D0
:101B9000DF93FC016083418381E082838CE0838357
:101BA000108A128ADF01539688E2ED0119928A9514
:101BB000E9F713AE14AE15AE16AE17AE9D9612969B
:101BC0001D921D921D921C92159716961D921C92A5
:101BD000179718961C921897EF01CB57DF4F188272
:101BE0009D01275F3F4F8EE1E901982F19929A9549
:101BF000E9F79796ED0119928A95E9F75F961C929D
:101C000011961C9211961D921D921D921C92139773
:101C100014961D921D921D921C921397E057FF4F30
:101C20001082DF91CF910895109238341092393498
:101C300088EE93E0A0E0B0E080933A3490933B3498
:101C4000A0933C34B0933D3424EB32EB20933634F4
:101C50003093373420E038E020933E3430933F34E3
:101C600010924034109241341092CB341092CC3404
:101C70008093CD349093CE34A093CF34B093D034AE
:101C800086EC92EB8093C9349093CA3489EC94E348
:101C90008093C7349093C83480EA98E08093D1341D
:101CA0009093D23482E390E080935E3D90935F3DC9
:101CB0001092613D8FE69DE38093623D9093633D7A
:101CC0001092683D1092693D10926A3D10926B3DF2
:101CD00081E08093673D8093643D1092653D82E092
:101CE0008093663D85E190E080935C3D90935D3DFF
:101CF00087E090E080935A3D90935B3D84E0809331
:101D0000603D84E294E080936C3D90936D3D88E06B
:101D100080936E3D1092AB3D1092AC3D1092AD3D64
:101D20001092AE3DEDEBFDE38EE0DF011D928A9552
:101D3000E9F71092CD3D1092CC3D1092CB3DE2EDF3
:101D4000FDE3ADEBBDE389ED9DE321E021931D9221
:101D50001D928E179F07D1F78AE08093D03D109295
:101D60008B3D10928C3D10928D3D10928E3D80E007
:101D700090E0AFEFB0E080938F3D9093903DA093C3
:101D8000913DB093923D80E09FEFA0E0B0E0809362
:101D9000933D9093943DA093953DB093963D8FEFE6
:101DA00090E0A0E0B0E08093973D9093983DA093A1
:101DB000993DB0939A3D80E09FEFAFEFB0E0809304
:101DC0009B3D90939C3DA0939D3DB0939E3D8FEF96
:101DD0009FEFA0E0B0E080939F3D9093A03DA09343
:101DE000A13DB093A23D8FEF90E0DC018093A33D35
:101DF0009093A43DA093A53DB093A63D8FEF9FEF98
:101E0000AFEFB0E08093A73D9093A83DA093A93D8C
:101E1000B093AA3D109266391092673988EE93E02C
:101E2000A0E0B0E08093683990936939A0936A3953
:101E3000B0936B3988ED92EB809364399093653958
:101E400010926C3910926D391092563D1092573D98
:101E50001092583D1092593D40E060E08DE695E3C8
:101E600096DE41E061E08EEF95E391DE42E062E0D4
:101E70008FE896E38CDE43E063E080E297E387DE61
:101E800048E064E081EB97E382DE49E065E082E4CC
:101E900098E37DDE4AE066E083ED98E378DE109219
:101EA0002B3510922C3510922D3510922E358DE653
:101EB00095E380932F359093303510923135109201
:101EC00032351092333510923435109235351092E8
:101ED00036358EE0E7E3F5E3DF01982F1D929A9502
:101EE000E9F7E5E4F5E3DF011D928A95E9F7109241
:101EF0005335109254351092553510925635109234
:101F00005735109258351092593510925A35109213
:101F1000693510926A3510926B3510926C351092BB
:101F20002A350895CF93DF93CDB7DEB7A097CDBF05
:101F3000DEBF88ED90E084BF90936100E0E0F6E0C2
:101F400083E081839FE0908791E2908390EA92837F
:101F50009AE093871092E40591E09093030A2EEFA4
:101F60002093260A2093270A2BE02093000A2FE0D3
:101F700037E220939C0A30939D0A9093950A109221
:101F8000910A8093900A789485EA8093020668DA31
:101F90000E9474046DD888E08093210480913304FA
:101FA000877F809333048091D03D0E94720032ED90
:101FB000E32E3DE3F32E10E000E0D7018D917D018B
:101FC000823009F401C1833009F401C1813019F470
:101FD0008090CB3D912CF401EE0FFF1FEE0FFF1F01
:101FE000E65AF24C41A952A963A974A9C8010E94FA
:101FF000B4000F5F1F4F07301105F9F68AE59DE326
:102000000E94640182EA9AE08093D6349093D73498
:102010008FE994E08093D8349093D9348091D4346C
:1020200081FD11C082FD0FC084608093D43488E0AC
:102030008093D334E091D134F091D2348BE1848712
:10204000168681EE81872FB7F89480913134909174
:102050003234A0913334B09134342FBF80932D3477
:1020600090932E34A0932F34B093303491E9792E8D
:102070008FB7F8942090313430903234409033341C
:10208000509034342F82388649865A868FBF80918B
:102090002D3490912E34A0912F34B0913034281AE1
:1020A000390A4A0A5B0AD201C101883B9B40A1055B
:1020B000B10508F48FC02F80388449845A84209257
:1020C0002D3430922E3440922F34509230343324B9
:1020D000339430922C3480912D35813009F0CBC06F
:1020E000F12CE12CD12CC12C00912F3510913035E1
:1020F000C8018E0D9F1D8BD94B015C017C9CD001CA
:102100007D9CB00D1124F801EA0FFB1F8281811123
:1021100064C0448555856685778514012501241A98
:10212000350A460A570AB201A101493C5105610529
:102130007105F4F1AF01455C5F4F63AD74AD85ADE2
:1021400096AD681579058A059B0594F527AD84E061
:10215000289F90011124A20FB31FA00FB11F539607
:102160008D929D92AD92BC92569783AE94AEA5AEE1
:10217000B6AED7015396A00FB11F80E0BF01615CDE
:102180007F4F0D911D912D913D91FA01808091809D
:10219000A280B380081519052A053B0534F4008395
:1021A000118322833383FB0180838F5F8A3049F759
:1021B000FFEFCF1ADF0A21E9E20EF11C37E0C31668
:1021C000D10409F091CF54CF8090CC3D03CF8090C3
:1021D000CD3D00CF10922C347ECF813049F744851D
:1021E000558566857785481959096A097B09493CEF
:1021F000510561057105E4F2AF01455C5F4F63ADC8
:1022000074AD85AD96AD86169706A806B90684F618
:1022100087AD24E0829FC0011124A80FB91FA00F31
:10222000B11F53968D929D92AD92BC92569783AEFC
:1022300094AEA5AEB6AED7015396A00FB11F80E005
:10224000BF01615C7F4F0D911D912D913D91FA0170
:1022500080809180A280B38080169106A206B3068A
:1022600034F40083118322833383FB0180838F5FE7
:102270008A3049F79DCF823009F0B8C0B12CA12C2B
:1022800010E000E0C0902F35D0903035809135348B
:10229000882321F08FEC93EB0E94590416012A0C3D
:1022A0003B1C2B863C8671018AE0882E912C212CC8
:1022B000312C2101709EC001719E900D11248C0D56
:1022C0009D1D9C012E5F3F4F2D873E87AC01445FD3
:1022D0005F4F4D835E83AD85BE858C9181118FC12B
:1022E000F70183899489A589B689ED81FE814081B2
:1022F000518162817381841B950BA60BB70B893CBE
:102300009105A105B105DCF080913534882369F091
:10231000D70153966D917D918D919C9156970E9416
:10232000270482E793EB0E945904F701838994897B
:10233000A589B689280E391E4A1E5B1E93948A947D
:10234000F4E0EF0EF11C8110C6CFB5E0EB2EE914DE
:1023500008F064C1F0903534292D30E050E040E0C1
:10236000C201B101D0D619012A01709EC001719E2F
:10237000900D1124C80ED91ED60118962D923D92AB
:102380004D925C921B97FF2021F08B859C850E94CB
:102390005A0480913534882391F089ED93EB0E94A3
:1023A0005904892D0E9453048FED93EB0E94590428
:1023B000C201B1010E9427048AE00E94DA032114BD
:1023C00031044104510429F0B201A101C8010E9465
:1023D00067030F5F1F4FB1E9AB0EB11C073011054A
:1023E00009F050CF10922D350E94380880912B357E
:1023F000882309F456C010922B35C0905535D090E3
:102400005635E7E0CE16D10408F049C0E0902F35EC
:10241000F09030357C9C80017D9C100D11240E0DB8
:102420001F1DC8010E94070AD80118966D937D935D
:102430008D939C931B9780913534882319F0C801A4
:102440000E945A047C9CC0017D9C900D1124E80ED2
:10245000F91EF701C084D184E284F384B701A60198
:1024600080915535909156350E946703809135349F
:102470008823A9F084EE93EB0E945904809155358E
:10248000909156350E944E0481EA93EB0E945904C4
:10249000C701B6010E9427048AE00E94DA030E9465
:1024A000380880912C35882331F010922C350E9409
:1024B000300A0E9438088091533590915435222477
:1024C0002394312C281A390AF101E55DFA4C168261
:1024D0001086128625E435E32B873C87B12CA12C8E
:1024E000912C812CAF01465F5F4F4D8B5E8B47E097
:1024F000429D9001439D300D1124C901855D9A4C88
:102500008B8F9C8FDF011896AF8BB88F9F012A5F4E
:102510003F4F2D873E8740902F3550903035120128
:102520002A0C3B1C789C8001799C100D1124040D11
:10253000151DD80113966C91139711968C910E94DA
:102540007F096B017C01F801C482D582E682F782A3
:10255000EA57FF4F8081882309F48EC0329680812C
:102560009181A281B3810097A105B10509F05AC0FC
:102570003896CC24C394C082789CC001799C900D7D
:102580001124840D951DFC01E057FF4F208122236B
:1025900009F470C089579F4FDC018C91789CF00141
:1025A000799CF00D1124E40DF51D808B789CF001D1
:1025B000799CF00D1124E40DF51D8289818B8089B1
:1025C000893C08F4DAC0E85BFF4F80818111DCC0F0
:1025D000789CF001799CF00D1124E40DF51DDF01CC
:1025E000AA5BBF4F8D919C91119701968D939C93FF
:1025F000E85BFF4F8081B1E08B278083C5C08130CD
:1026000009F09DCEED81FE8180819181A281B3810F
:10261000F70143895489658976896DCE212C312C47
:102620002101B7CEF801E457FF4F4081518162810B
:102630007381CF80D884E984FA84C41AD50AE60A63
:10264000F70AB701A60184179507A607B70708F090
:1026500093CFD801A057BF4F8C91DD24D3948D2503
:102660008C93CF80D884E984FA84C082D182E282BC
:10267000F38282CF80E092CFD8011C962D913D91BC
:102680004D915C911F972D8F3E8F4F8F58A31896B9
:102690004D915D916D917C911B9712962C918D8D32
:1026A0009E8DAF8DB8A1211136C0C816D906EA0695
:1026B000FB0664F1C416D506E606F7063CF06A018F
:1026C0007B0191E0C91AD108E108F108789C8001EA
:1026D000799C100D1124040D151D8D8D9E8DAF8DCF
:1026E000B8A1C81AD90AEA0AFB0AFE2CED2CDC2C88
:1026F000CC249A01AB01281B390B4A0B5B0BC70199
:10270000B60101D5D80150962C9350CFCD8CDE8CDC
:10271000EF8CF8A0DBCFC816D906EA06FB062CF131
:102720006C017D0191E0C91AD108E108F108789C9B
:102730008001799C100D1124040D151DC41AD50AB1
:10274000E60AF70AFE2CED2CDC2CCC248D8D9E8D18
:10275000AF8DB8A1841B950BA60BB70B9C01AD01E7
:10276000C701B601D0D42095CDCFC416D506E60654
:10277000F706ECF66A017B01DACF823328F4E85BD6
:10278000FF4F8081811124CFF101EE5BFF4F8081EB
:102790009181A281B381CF80D884E984FA84C81A58
:1027A000D90AEA0AFB0AD701C601883C9105A105AE
:1027B000B10508F468C0CF80D884E984FA84C08267
:1027C000D182E282F382789C1001799C300C112432
:1027D0007201E20CF31C97012B573F4F2D833E8370
:1027E000F901008110E0F801EE0FFF1FE20DF31D6B
:1027F0006F01C40CD51CCD8EDE8ED601A75BBF4FFA
:102800002D913C911197298F3A8F670136E4C30EC1
:10281000D11CF601208131812D933C93C8010E9685
:102820006FE070E03BD4DC01AA0FBB1FA20DB31D0B
:10283000A40DB51DA959BF4F298C3A8C2219330913
:102840008D919C91280F391FED8DFE8DE959FF4F19
:1028500020833183F701E05CFF4F20833183C8017F
:1028600001966FE070E01AD4ED81FE818083D6017D
:102870001D921C9291E02F31310508F490E0F70190
:102880008189892B818B789CC001799C900D1124C2
:10289000480E591ED20150968C91282F30E0EB85BE
:1028A000FC8521933193EB87FC872A303105C0F0FA
:1028B000AD89BE89EC9191E09E0F9C932B8C3C8C52
:1028C0002E0E311CF1018487AF89B88D8C9121E0E7
:1028D00030E0082C01C0220F0A94EAF7822B8C9377
:1028E000E0912F35F0913035EA0DFB1D8189082CE0
:1028F00001C0880F0A94EAF7ED85FE859081892B47
:102900008083FFEF8F1A9F0A21E9A20EB11C37E0E6
:102910008316910409F0FFCD809153359091543581
:1029200041E050E0481B590B4093533550935435C8
:102930000E942501009128341091293420912A34D5
:1029400030912B341B012C01201A310A420A530A00
:1029500092018101003D17402105310508F4F2C0C4
:10296000609328347093293480932A3490932B34C5
:10297000BDE6EB2EB5E3FB2E10E000E08AEFB82EAB
:102980009CEFA92E2EEF922ED70151968C91882381
:1029900089F06090CE3DF8E080E06F1611F1B4E070
:1029A0006B9EF0011124E65AF24C41A952A963A989
:1029B00074A930C1F801EE52F24C9081923009F4C2
:1029C000DAC0933009F4DAC0913041F46090CB3D25
:1029D00081E09091CF3D911101C080E0B8E06B1291
:1029E0000EC16801CC0CDD1CF601E65AF24C6F01F9
:1029F000ED59FF4F208131812115310509F4F1C0D6
:102A00002150310920833183232B09F4DEC0F5E501
:102A1000CF0ED11CD6012D913C91AAEFB5E08FD3FA
:102A2000DC01CB019058AF4FBF4FCD01BB2797FDC5
:102A3000B095AB2F8E3FE1E09E0708F0A2C0282F93
:102A40008F3F910508F4BBC0F92DF81B8F2F60E074
:102A50002FEF8F87188A2F843888C101B0E0A0E05B
:102A6000DC0199278827698B1A8A49885A88A2012C
:102A700070E060E08429952BA62BB72B2B8B1C8A4A
:102A80002B883C88A10170E060E0762F652F542FE1
:102A90004427842B952BA62BB72B89839A83AB8352
:102AA000BC83E82FF0E0E055FE4480818983EA8111
:102AB000F0E0E055FE4480818A83EB81F0E0E05550
:102AC000FE4480818B83EC81F0E0E055FE44808100
:102AD0008C8349815A816B817C81C8010E94B4003A
:102AE000D6018D919C91119782589E4F8D939C9306
:102AF00038E0632E0F5F1F4FE1E9EE0EF11C073047
:102B0000110509F041CF0E9425010091683D109107
:102B1000693D20916A3D30916B3DAB01BC01401B8A
:102B2000510B620B730B80915E3D90915F3DB0E065
:102B3000A0E0481759076A077B0720F08AE59DE364
:102B40000E94640100912A3510E00E942501000FC7
:102B5000111F000F111FF801E250FB4C60837183BD
:102B60008283938380912A358F5F8B3008F056C023
:102B700080932A357DCA6090CC3D0DCF6090CD3DCD
:102B80000ACF8C3F23E0920760F462E0680F2FEFDA
:102B90008D3F32E0930718F02A2D281B6FEF80E05D
:102BA00058CF8A3FE5E09E0769F06B2D681B8B3F8D
:102BB000F4E09F0740F48C5F6FEF20E04ACF60E0C5
:102BC0008FEF47CF60E020E0FBCF40918B3D5091ED
:102BD0008C3D60918D3D70918E3DC8010E94B40086
:102BE00087CF40E050E0BA018823B9F34091AB3D74
:102BF0005091AC3D6091AD3D7091AE3DEECF8823DC
:102C000009F4CDCE4091AB3D5091AC3D6091AD3DCE
:102C10007091AE3DC8010E94B4006CCF10922A356D
:102C200027CA5058BB27AA270ED070C161D130F0F7
:102C300066D120F031F49F3F11F41EF456C10EF41A
:102C4000E095E7FB4CC1E92F72D180F3BA17620718
:102C500073078407950718F071F49EF58AC10EF486
:102C6000E0950B2EBA2FA02D0B01B90190010C019C
:102C7000CA01A0011124FF27591B99F0593F50F4B4
:102C8000503E68F11A16F040A22F232F342F44270C
:102C9000585FF3CF469537952795A795F040539504
:102CA000C9F77EF41F16BA0B620B730B840BBAF0D4
:102CB0009150A1F0FF0FBB1F661F771F881FC2F73F
:102CC0000EC0BA0F621F731F841F48F48795779553
:102CD0006795B795F7959E3F08F0B3CF9395880F0A
:102CE00008F09927EE0F979587950895D4D008F4AA
:102CF00081E008950CD00AC102D140F0F9D030F043
:102D000021F45F3F19F0EBC0511134C1EEC00FD177
:102D100098F39923C9F35523B1F3951B550BBB27A2
:102D2000AA2762177307840738F09F5F5F4F220F4F
:102D3000331F441FAA1FA9F333D00E2E3AF0E0E848
:102D400030D091505040E695001CCAF729D0FE2F94
:102D500027D0660F771F881FBB1F26173707480726
:102D6000AB07B0E809F0BB0B802DBF01FF279358DC
:102D70005F4F2AF09E3F510568F0B1C0FBC05F3F36
:102D8000ECF3983EDCF3869577956795B795F795C4
:102D90009F5FC9F7880F911D9695879597F90895BC
:102DA000E1E0660F771F881FBB1F62177307840758
:102DB000BA0720F0621B730B840BBA0BEE1F88F767
:102DC000E0950895BCD088F09F5790F0B92F9927CF
:102DD000B751A0F0D1F0660F771F881F991F1AF026
:102DE000BA95C9F712C0B13081F0C3D0B1E00895EF
:102DF000C0C0672F782F8827B85F39F0B93FCCF370
:102E0000869577956795B395D9F73EF4909580951B
:102E1000709561957F4F8F4F9F4F0895E89409C03B
:102E200097FB3EF490958095709561957F4F8F4FFD
:102E30009F4F9923A9F0F92F96E9BB279395F69513
:102E4000879577956795B795F111F8CFFAF4BB0F91
:102E500011F460FF1BC06F5F7F4F8F4F9F4F16C0F5
:102E6000882311F096E911C0772321F09EE8872F7F
:102E7000762F05C0662371F096E8862F70E060E03B
:102E80002AF09A95660F771F881FDAF7880F9695B4
:102E9000879597F90895990F0008550FAA0BE0E858
:102EA000FEEF16161706E807F907C0F0121613060C
:102EB000E407F50798F0621B730B840B950B39F44C
:102EC0000A2661F0232B242B252B21F408950A26B2
:102ED00009F4A140A6958FEF811D811D089597F9F2
:102EE0009F6780E870E060E008959FEF80EC0895B0
:102EF00000240A94161617061806090608950024D9
:102F00000A9412161306140605060895092E039452
:102F1000000C11F4882352F0BB0F40F4BF2B11F4C6
:102F200060FF04C06F5F7F4F8F4F9F4F089557FD25
:102F30009058440F551F59F05F3F71F04795880F27
:102F400097FB991F61F09F3F79F0879508951216BE
:102F500013061406551FF2CF4695F1DF08C016166A
:102F600017061806991FF1CF86957105610508941B
:102F70000895E894BB2766277727CB0197F9089532
:102F80008ADF08F48FEF08950BD0C0CFB1DF28F0AF
:102F9000B6DF18F0952309F0A2CFA7CF1124EACF0E
:102FA000C6DFA0F3959FD1F3950F50E0551F629FA8
:102FB000F001729FBB27F00DB11D639FAA27F00D92
:102FC000B11DAA1F649F6627B00DA11D661F829FB9
:102FD0002227B00DA11D621F739FB00DA11D621F9E
:102FE000839FA00D611D221F749F3327A00D611DBB
:102FF000231F849F600D211D822F762F6A2F11249D
:103000009F5750408AF0E1F088234AF0EE0FFF1FEF
:10301000BB1F661F771F881F91505040A9F79E3F26
:10302000510570F05CCFA6CF5F3FECF3983EDCF328
:10303000869577956795B795F795E7959F5FC1F763
:10304000FE2B880F911D9695879597F9089523DF9C
:10305000880B990B0895DB018F939F937FD0BF91CD
:10306000AF91A29F800D911DA39F900DB29F900DD7
:1030700011240895AA1BBB1B51E107C0AA1FBB1F47
:10308000A617B70710F0A61BB70B881F991F5A95F4
:10309000A9F780959095BC01CD01089597FB072E67
:1030A00016F4009406D077FD08D0E4DF07FC05D0C5
:1030B0003EF4909581959F4F0895709561957F4F4F
:1030C0000895A1E21A2EAA1BBB1BFD010DC0AA1F69
:1030D000BB1FEE1FFF1FA217B307E407F50720F081
:1030E000A21BB30BE40BF50B661F771F881F991FFC
:1030F0001A9469F760957095809590959B01AC0145
:10310000BD01CF010895052E97FB16F400940FD052
:1031100057FD05D0D6DF07FC02D046F408C0509515
:103120004095309521953F4F4F4F5F4F08959095B3
:103130008095709561957F4F8F4F9F4F0895A29F07
:10314000B001B39FC001A39F700D811D1124911D7B
:10315000B29F700D811D1124911D0895F0DFA59F70
:10316000900DB49F900DA49F800D911D1124089582
:10317000EE0FFF1F0590F491E02D0994FB01DC0197
:1031800002C001900D9241505040D8F70895FB01C4
:10319000DC014150504048F001900D920020C9F7E9
:1031A00001C01D9241505040E0F70895F894FFCFC0
:1031B000000000000000000000000000000000000F
:1031C00000000000000000000101010101010101F7
:1031D00001010101020202020202020203030303CF
:1031E0000303040404040505050505060606060791
:1031F00007070808080909090A0A0A0B0B0B0C0C37
:103200000D0D0D0E0E0F0F101011111212131314BD
:10321000141515161617181819191A1B1B1C1D1D25
:103220001E1F1F2021222223242526262728292A63
:103230002A2B2C2D2E2F3031323334353637383976
:103240003A3B3C3D3E3F4041424445464748494B5E
:103250004C4D4E50515254555658595A5C5D5E6013
:103260006163646667696A6C6D6F70727375777895
:103270007A7C7D7F8182848688898B8D8F919294E0
:1032800096989A9C9EA0A2A4A6A8AAACAEB0B2B4EE
:10329000B6B8BABCBFC1C3C5C7CACCCED1D3D5D7C7
:1032A000DADCDFE1E3E6E8EBEDF0F2F5F7FAFCFF5C
:1032B000000000006F02E7011402BB024502230276
:1032C000370200000000030315039603CF02FD023E
:1032D000EB02D702000000009903E7019603950373
:1032E00096039603960373657452617770726573E3
:1032F000732800293A2000206572723D004F4E0A63
:10330000004F46460A006B657974657374206B65DF
:103310007920002C2076616C20002C20696E746569
:103320007276616C20005345545F444542554720F6
:103330000057697265526563457620002C206172E2
:1033400067763A0020723A006E616E00696E660020
:103350006F7666002E0076616C6964617465205238
:10336000617770726573733A20006D656469616E90
:103370003D002C200076616C6964617465205261A7
:103380007772656C656173653A200073657452618C
:103390007772656C65617365280072656C43616C5A
:1033A000282920004D6172203237203230323620F9
:1033B00031383A30373A30370057697265526571A3
:1033C0004576206374726C3A002C6E3A002C0063D0
:1033D000616C5F6869733A20000A636E743D002C6B
:0C33E00020763D0070726543616C28008F
:0233EC000100DE
:00000001FF
