:100000003EC0000070C000006EC000006CC0000068
:100010006AC0000068C0000066C0000064C0000044
:1000200062C0000060C000005EC000005CC0000054
:100030005AC0000058C0000056C000005DC7000054
:1000400052C0000050C000004EC000004CC0000074
:100050000C9430080C94300846C0000044C00000E6
:100060000C94920840C000003EC000007AC7000017
:1000700072C700007CC7000036C000003809112498
:100080001FBECFEFCDBFDFE3DEBF80914000809386
:100090004000811105C098ED21E094BF20934100FC
:1000A0008CBB18E3A0E0B8E3EDEAFAE202C00590E9
:1000B0000D92AA30B107D9F72FE3AAE0B8E301C047
:1000C0001D92AE32B207E1F710E0CFE3D0E004C0FA
:1000D0002197FE010E946A14CE33D107C9F70E940E
:1000E000D9090C948E148CCFAF92BF92CF92DF922D
:1000F000EF92FF920F931F93CF93DF936C017B01DD
:100100008B01040F151FEB015E01AE18BF08C0176D
:10011000D10759F06991D601ED91FC910190F081E0
:10012000E02DC6010995892B79F7C501DF91CF91A3
:100130001F910F91FF90EF90DF90CF90BF90AF9005
:100140000895FC0157854089252F30E0842F90E0E9
:10015000821B930B541710F0CF96089501970895C2
:10016000FC0195858685981761F0A685AE0FBF2F97
:10017000B11D51968C9196859F5F9F73968790E0F5
:1001800008958FEF9FEF0895FC0195858685981758
:1001900031F08685E80FF11D818990E008958FEF99
:1001A0009FEF0895FC0195852685892F90E0805C5E
:1001B0009F4F821B91098F7399270895DC010FB619
:1001C00007FE04C0809111018823B1F01896ED91CB
:1001D000FC911997848185FF0FC01F969C911F97F2
:1001E00050968C91981304C085818F7D85830895E6
:1001F000E0EDFAE3E894C8C608950F931F93CF93F8
:10020000DF93EC018C8581608C879F8588899813AA
:100210000BC0E885F985848185FF06C08C8581FD4A
:100220000DC080E4848312C0062F1F851F5F1F73DB
:100230008889811315C0CE01C1DFFACF85818F7700
:10024000806490E49483E885F9858583E885F98561
:10025000628381E090E0DF91CF911F910F9108952B
:10026000EF85EC0FFD2FF11DEF5AFF4F00831F8725
:100270008C85E885F98581FF09C085818F77806647
:1002800090E49483E885F9858583E3CF8581806256
:10029000FBCFCF93DF93EC018C8580FF0BC0E8850B
:1002A000F985858185FD03C0848186FD03C0CE016B
:1002B00085DFF5CFDF91CF910895CF93DF93FC01D8
:1002C0008091BB3A9091BC3A309759F410920A064B
:1002D00082E090E08093C33A9093C43ADF91CF914B
:1002E0000895268524FD05C022813381281739070A
:1002F00021F00190F081E02DE7CFE093BD3AF0933B
:10030000BE3AC0E0D6E086858D7F8687A789AA237E
:1003100019F0A485A295AF708585258136812EA31D
:100320003FA3278130852AA73BA78B3108F58C5F37
:100330008D838385982F9F7090619A83988D9360A9
:10034000988F218532852A8F3B8FB0E0A05EB6451D
:100350009C919C8F94859F70998382958F70898FD3
:1003600081E88883868582FD05C081E08887B6CFD5
:100370008FE1DECF81E08987B1CFDC011896ED9166
:10038000FC9184818860848308959C012B5E3F4F9B
:10039000DC015396EC91539752968C91E81730F408
:1003A000E20FF32FF11D808190E008958FEF9FEF12
:1003B0000895FC01DC01559693898289981740F4D1
:1003C000A90FB11D2C919F5F938B822F90E0089510
:1003D0008FEF9FEF0895FC0182899389891B990B08
:1003E0000895FC01A289A03258F4A80FB92FB11DBD
:1003F00055966C9382898F5F828B81E090E008959F
:1004000090E080E00895BF92CF92DF92EF92FF924A
:100410000F931F93CF93DF937C016A01B62EEB01FC
:100420000C2F0B1910E00C151D0528F46991C7015C
:10043000D8DF892BA9F7C801DF91CF911F910F91C8
:10044000FF90EF90DF90CF90BF900895089590E0D7
:1004500080E00895CF93DF93FC018085918500971C
:1004600061F0DC01ED91FC910190F081E02D0995A6
:1004700081E090E0DF91CF910895EF01CE59DD4FFB
:1004800088819981DF01AC59BD4F2D913C91119725
:10049000820F931F883522E0920710F08855924012
:1004A000E80FF91F62878D919C91119701968D93AA
:1004B0009C9311978D919C91119789359240C0F230
:1004C000888199810196888399838881998188356B
:1004D000924010F01882198288E592E08D939C93E7
:1004E000C7CFB8CFFB0101900020E9F73197AF01EA
:1004F000461B570BF9CD8F929F92AF92BF92EF920E
:10050000FF920F931F93CF93DF93CDB7DEB7A197E1
:10051000CDBFDEBF7C01FA01CB0119A2223008F465
:100520002AE08E010F5D1F4F822E912CB12CA12C41
:10053000BF01A50194010E942214F901CA016A3089
:10054000ECF4605DD8016E938D01232B242B252BB9
:1005500079F790E080E0109719F0BD01C701C2DF84
:10056000A196CDBFDEBFDF91CF911F910F91FF907C
:10057000EF90BF90AF909F908F900895695CE2CF0D
:100580006115710509F0AECF90E080E00895482F25
:1005900050E070E060E02AE088E99BE3ACCFAB017B
:1005A00070E060E02AE0A7CF2F923F924F925F92D7
:1005B0006F927F928F929F92AF92BF92CF92DF9273
:1005C000EF92FF921F93CF93DF93EC016A017B01BF
:1005D000722EAB019601CB01B6010E940F146BEB9A
:1005E00079EA811126C046015701E894B7F82FEF48
:1005F0003FEF4FE75FE7C501B4010E940F1481117F
:100600000CC02FEF3FEF4FE75FE7C501B4010E9439
:100610005E126FEB79EA181664F02FEF3FEF4FE7A9
:100620005FE4C701B6010E94A8131816ACF463EC8E
:1006300079EACE01DF91CF911F91FF90EF90DF908B
:10064000CF90BF90AF909F908F907F906F905F9072
:100650004F903F902F9046CF2FEF3FEF4FE75FEC4B
:10066000C701B6010E945E1287FDE1CF20E030E0B5
:10067000A901C701B6010E945E12312C212C87FF0F
:1006800008C06DE2CE012DDF1C01F7FAF094F7F8F7
:10069000F09410E060E070E080E09FE3711641F0BC
:1006A00020E030E040E251E40E9462121F5FF6CF8A
:1006B000A70196010E94FA112B013C010E94CA1267
:1006C0004B015C012AE0BC01A401CE0114DF7C01D6
:1006D000E20CF31C112399F1C501B4010E94F6123A
:1006E0009B01AC01C301B2010E94F9114B015C01F5
:1006F00067EC79EACE01F6DEE80EF91E1150F8F04B
:1007000020E030E040E251E4C501B4010E94AC13A6
:100710002B013C010E94CA124B01CE0140DFE80EC2
:10072000F91EB40190E080E00E94F6129B01AC013A
:10073000C301B2010E94F9114B015C01DFCFC70177
:10074000DF91CF911F91FF90EF90DF90CF90BF90FE
:10075000AF909F908F907F906F905F904F903F9061
:100760002F9008958F929F92AF92BF92CF92DF9277
:10077000EF92FF92CF93DF93181619060CF0E7C0A3
:1007800083E69BE316DE80934638853409F0C3C0C8
:10079000C0E0D8E383E69BE30CDE899388E3C830AE
:1007A000D807C1F7609106387091073890E080E073
:1007B0000E94F61220E030E040E251E40E94621212
:1007C0006B017C01609104387091053890E080E005
:1007D0000E94F61220E030E040E251E40E946212F2
:1007E0004B015C0120E030E048EC52E40E945E12D4
:1007F00087FF83C020E030E040EC5FE3C501B40137
:100800000E94A813181634F0812C912C30ECA32EE2
:100810003FE3B32E80921B3F90921C3FA0921D3F5E
:10082000B0921E3F20E030E048EC52E4C701B60130
:100830000E945E1287FF68C020E030E040EC5FE37A
:10084000C701B6010E94A813181634F0C12CD12C90
:1008500090ECE92E9FE3F92EC0921F3FD092203FEB
:10086000E092213FF092223F62ED79EA88E99BE332
:1008700087DE609104387091053888E99BE38FDE4C
:100880006FE288E99BE32DDE40911B3F50911C3FB6
:1008900060911D3F70911E3F22E088E99BE384DE5A
:1008A00062EE79EA88E99BE36BDE6091063870912D
:1008B000073888E99BE373DE6FE288E99BE311DE8A
:1008C00040911F3F5091203F6091213F7091223F06
:1008D00022E088E99BE368DE6AE088E99BE301DEC9
:1008E00081E0809345389091753B8091763B9817D5
:1008F00071F183E69BE35DDDF6CF812C912C28EC32
:10090000A22E22E4B22E86CFC12CD12C88ECE82E68
:1009100082E4F82EA1CF823331F783E69BE349DDF1
:1009200021E0892B09F420E02093083867EE79EA6A
:1009300088E99BE325DE809108386DEC79EA88230D
:1009400011F069EC79EA88E99BE31ADECCCFDF91FC
:10095000CF91FF90EF90DF90CF90BF90AF909F909E
:100960008F9008951F93CF93DF93EC019E8590FDA8
:10097000CCC093FFCAC0977F9E872F8538898F8907
:10098000188D8111B1C0F9854A85642F607C2115CD
:1009900052E0350718F1C9018F5F9140843091050D
:1009A00008F487C05A8150FF05C0969587955FEF80
:1009B000EAEF0AC0813051E0950720F0605CC90180
:1009C0008F5E924051E0E6E07F2F72957F70342F6A
:1009D0003F7042954F70242F237055C08FEF91E0E8
:1009E000821B930B8430910508F463C05A8150FF39
:1009F00003C096958795E6CF813051E09507B8F210
:100A00006034A8F260548FE091E0821B930BCFCF4B
:100A1000452F420F443030F48F5C9109242F803DE4
:100A20009105B0F78631910500F5303128F0422F5D
:100A3000450F4430F8F0351B82309105F0F47031E9
:100A400010F1350F303198F1250F2430D8F08E8514
:100A50005F3FB1F581608E8762EF79EA88E99BE3B9
:100A60008FDD2097C1F58FEF37C0350F3031F8F6A5
:100A70004597D8CF3E1B242FDFCF750F703108F775
:100A80000297DACF3E1B8230910548F67295707F4F
:100A90002295207F362B232BFF707F2B322F272F81
:100AA00029873A871B3088F41F5F188F2EC07E1B62
:100AB000EACF298B3A8B8E8582FDECC084E023C07F
:100AC00081608E876BEF79EAC9CF8E8581608E87D2
:100AD00065E07AEAC3CF8C815ADD6AE088E99BE35E
:100AE000DF91CF911F91FDCC49895A89241B350B89
:100AF000813079F42B363F4F0CF7143008F080E04A
:100B00009F89981789F2188E8F8BDF91CF911F9153
:100B10000895823079F41216130684F22A363F4F74
:100B20000CF4BAC041505109103150F3498B5A8B23
:100B300084E0E6CF8430D9F42A368FEF38070CF4FE
:100B4000ABC08B899C89281739070CF0A9C04B567C
:100B500051404B32514008F0A5C02F3F5FEF3507A1
:100B60000CF49CC088E02230310554F69DCF8830CB
:100B700071F437FDA3CF6B897C89261737070CF0FA
:100B80008FC0103108F4BCCF4F5F5F4FCFCF8031A3
:100B9000E9F41330A0F080910838882371F06EE0FA
:100BA0007AEA88E99BE3ECDC8FEF209709F08C81EF
:100BB000EEDC6AE088E99BE394DC80E4A1CF4B891A
:100BC0005C89241735070CF479CF9ACF8032E1F491
:100BD0001330A0F080910838882309F46FCF67E1C3
:100BE0007AEA88E99BE3CCDC8FEF209709F08C81CF
:100BF000CEDC6AE088E99BE374DC9ACF4B895C89A0
:100C000042175307D4F27CCF803459F4193C08F0D2
:100C100049C04D895E89241735070CF071CF80E2F9
:100C20006FCF803809F06CCF2F3F9FEF3907CCF49E
:100C300041505109498B5A8B209114063091150669
:100C40002150310920931406309315062091120685
:100C50003091130621503109209312063093130668
:100C60004FCF223031050CF44BCF4F5F5F4F498B94
:100C70005A8B20911406309115062F5F3F4F209319
:100C800014063093150620911206309113062F5F3B
:100C90003F4FE2CF80E834CF81E032CF82E030CFE7
:100CA00080E12ECF80E02FCF4F925F926F927F92A4
:100CB0009F92AF92BF92CF92DF92EF92FF920F93EB
:100CC0001F93CF93DF9380914638823459F1E8F433
:100CD000833309F4F9C045E050E066EF7EE38134E8
:100CE00009F4E9C081E480934638DF91CF911F91E8
:100CF0000F91FF90EF90DF90CF90BF90AF909F90BB
:100D00007F906F905F904F900895843409F466C08F
:100D100008F49BC0813831F788ED91E084BF90934F
:100D20004100E0CFF090FE3DF092FB3EE090FF3DB1
:100D3000E092FC3E6EEF7DE3EDEFFEE3AB01912C24
:100D400001E010E0E914C1F110829B012E5F3F4FDA
:100D500090E080E08F1548F5E9015901AEEFAA1A3D
:100D6000BA0A6C01CC0CDD1CCC0CDD1CC40ED51EEB
:100D7000D6015B964D905D906D907C905E977594DA
:100D8000679457944794D5014C92B8812F5F3F4F99
:100D9000BB2349F0B081E801082E01C0CC0F0A94B2
:100DA000EAF7BC2BB0830196D5CF93946B5F7F4F4E
:100DB00031964C5E5F4FC6CF40E250E06BEF7EE372
:100DC00083E69BE320DB8091083861E27AEA88239E
:100DD00009F488CF88E99BE3D3DB84CF20E030E0BF
:100DE00040E251E460911B3F70911C3F80911D3F98
:100DF00090911E3F0E94AC130E94CA126093043867
:100E00007093053820E030E040E251E460911F3FEC
:100E10007091203F8091213F9091223F0E94AC131E
:100E20000E94CA12609306387093073848E050E079
:100E300060E078E383E69BE3E6DA80910838882374
:100E400009F450CF6FE27AEAC5CF90E080E02091BC
:100E5000FC3D3091FD3D232B41F12091FA3D309135
:100E6000FB3DA9014F5F5F4F4093FA3D5093FB3D1F
:100E70002856344CF90122850196FC01EB5DF74CB4
:100E800020832091FA3D3091FB3D28353240B8F463
:100E90002091FC3D3091FD3D215031092093FC3DD6
:100EA0003093FD3D8E31910591F6809344384FE1AA
:100EB00050E066E278E383E69BE3A5DA13CF109275
:100EC000FA3D1092FB3DE4CF81E080930A38109206
:100ED0000B3810920C3880930D3847E150E06CE3EA
:100EE0007AEA8EE098E30E947F14109225384CE154
:100EF00050E06AE078E3DFCF8F9381E080938D0A42
:100F00008FB78F93EF93FF93E6ECFAE39F93689488
:100F10008FEF0DC0E89484819581805D9C4F848320
:100F20009583885E934080F0848395838FEF9081D2
:100F3000981B919390819F4F919390819F4F919394
:100F400090819F4F919336F39F91FF91EF918F91F5
:100F50008FBF8F911895EF93FF93F898E0EDFAE328
:100F60000BC0EF93FF93F898E0EDFAE333C0EF93F3
:100F7000FF93E0EDFAE35BC02F932FB72F938F938E
:100F80009F93AF93BF936894CF93DF9320E0C08586
:100F9000D8E09089DF01A90FB21FAF5ABF4F8C91E3
:100FA00020E42C838A839F5F9F738D81278529137B
:100FB00002C08F7D8D83908BDF91CF910EF01CC985
:100FC000BF91AF919F918F912F912FBF2F91FF9143
:100FD000EF9118952F932FB72F933F938F939F9354
:100FE000CF93DF93C085D8E0898198818674880F7C
:100FF0003485382B82FD0DC0C58581E08C0F8F7341
:101000002685281791F0CE0FDF2F20E0D21F998B75
:1010100085873487DF91CF919F918F913F912F9159
:101020002FBF2F91FF91EF9118953064F2CF8F93DE
:101030008FB78F939F93CF93DF93C085D8E09D8127
:1010400088818C8187FDFCCF9F7B90689D83DF9199
:10105000CF919F918F918FBF8F91FF91EF911895B5
:101060001F920F920FB60F9211242F933F934F931D
:101070005F936F937F938F939F93AF93BF93CF9320
:10108000DF93EF93FF93C0E0D6E0E091BD3AF0919B
:10109000BE3A3097A9F48FEF8B87FF91EF91DF91E4
:1010A000CF91BF91AF919F918F917F916F915F9100
:1010B0004F913F912F910F900FBE0F901F90189559
:1010C0008889998924852F7002C0969587952A95DD
:1010D000E2F78787908B868588608687868582FB86
:1010E000992790F982FF1AC08C81823059F428E048
:1010F00030E02093C33A3093C43A86858260868775
:101100009C83CBCF80E190E08093C33A9093C43A24
:1011100086858D7F868782E08C83BFCF8081918199
:10112000CCD8BBCF1F920F920FB60F9211241F93F2
:101130002F933F934F935F936F937F938F939F93DF
:10114000AF93BF93CF93DF93EF93FF93C091613B36
:10115000D091623B2097B9F1A885B9851B961C9167
:101160001B9716FF53C08B8583FF09C0877F8B8732
:10117000EF85F889309719F08A8990E0099510FF7A
:101180003BC08A8981110BC080914738811107C00B
:1011900080915000809347388170809350001A8A64
:1011A0001B8AE885F9858585898B11FF20C0ED852F
:1011B000FE85309709F009958A8981111BC086E068
:1011C000E885F9858287FF91EF91DF91CF91BF91FB
:1011D000AF919F918F917F916F915F914F913F91CF
:1011E0002F911F910F900FBE0F901F9018958B8518
:1011F00088608B8783E0E4CF8091473880935000EC
:10120000109247381A8A1B8A82E0DACF17FF2EC065
:101210009E012B5E3F4F11FF1AC08A85182321F0D3
:1012200088E08A871A8AF0CF8C898F5F8C8B88E15F
:101230008A87EB898A89E817A8F7E20FF32FF11D57
:1012400080811D968C938B898F5F8B8BD3CF1D965E
:101250008C91EA89E03250F4E20FF32FF11D808384
:101260008A898F5F8A8B803229F6A9CF80E0A8CF48
:10127000CF93DF93E0EDFAE31282138288EE93E0DE
:10128000A0E0B0E084839583A683B78329E839EA98
:101290002083318320E038E020873187128613864F
:1012A000E3E6FBE31282138284839583A683B783EC
:1012B0002BE939EA20833183E093613BF093623B71
:1012C00020E138E020873187EEEFFDE325E0208341
:1012D00021831092E13E1092E23E1092E33E109282
:1012E000E43E1092E53E1092E63E1092E73E1092E8
:1012F000E83E1092E93E1092EA3E1092EB3E1092C8
:10130000EC3E1092ED3E1092EE3E1092EF3E1092A7
:10131000F03E1092F13E1092F23E1092F33E109287
:10132000F43E1092F53E10921B3F10921C3F10921B
:101330001D3F10921E3F10921F3F1092203F1092AF
:10134000213F1092223F10922B3FE0E0FEE339E173
:10135000EF0119923A95E9F734E6E9E1FEE3EF018E
:10136000432F19924A95E9F7EDE7FEE3EF01199251
:101370003A95E9F7E6EFFEE3EF0119922A95E9F7CE
:10138000E8E9FBE31282138284839583A683B78303
:101390008DEA99EA80839183108611861092FA3D36
:1013A0001092FB3D1092FC3D1092FD3DDF91CF91DC
:1013B0000895CF93DF93CDB7DEB7A197CDBFDEBF42
:1013C00088ED90E084BF90936100E0E0F6E083E573
:1013D00082838DE0858380E2838381E08083109225
:1013E00002028093030A9EEF9093260A9093270AA5
:1013F0009BE09093000AE0E8FAE02DEF31E026A7A9
:1014000037A7118290E89283848781E18083789462
:10141000FE01319690E080E0DC01B3612C912193D4
:10142000019688309105C1F789809A80AB80BC8095
:10143000CD80DE80EF80F88420E030E048EC52E49C
:10144000C501B4010E945E1287FF11C020E030E0A8
:1014500040EC5FE3C501B4010E94A81318166CF0BC
:10146000812C912C10ECA12E1FE3B12E06C0812CF3
:10147000912C08ECA02E02E4B02E80921B3F90929B
:101480001C3FA0921D3FB0921E3F20E030E048EC90
:1014900052E4C701B6010E945E1287FF05C120E039
:1014A00030E040EC5FE3C701B6010E94A8131816B4
:1014B0000CF001C1C0921F3FD092203FE092213F2B
:1014C000F092223F8FE063D861E57AEA88E99BE3F6
:1014D00057D840911B3F50911C3F60911D3F709128
:1014E0001E3F22E088E99BE35FD862EE79EA88E953
:1014F0009BE346D840911F3F5091203F6091213F90
:101500007091223F22E088E99BE34ED86AE088E9A7
:101510009BE30E94710284E596E08093703B909378
:10152000713B82EB93E08093723B9093733B80918D
:10153000010280618093010280916E3B81FD1AC09F
:1015400082FD18C08091010284FFBCC086E08093B8
:10155000060480916E3B846080936E3B88E08093AC
:101560006D3BE0916B3BF0916C3B8FE1848716867D
:1015700081EE8187A0E8B9EA80E099E1AA24A394EA
:10158000B12C04E0E5E02E2E312CF4E34F2EF2E0F6
:101590005F2E67E5662E69EA762E20E0822E880EA1
:1015A000EC9160E030E0E23138F4F0E0EE0FFF1F44
:1015B000E45AF64560813181F30141913F0110E029
:1015C00070E0423140F4E42FF0E0EE0FFF1FE45AE8
:1015D000F64510817181E82CF12C899E400111247F
:1015E000A401485B574CE8ECE50FE73008F078C001
:1015F000E091BF3AF091C03A309709F068C040934B
:10160000BF3A5093C03A9E9DF0019F9DF00D11246A
:10161000E85BF74C1482F401E35BF74C10837183B1
:10162000628333839E9DF0019F9DF00D1124E85B42
:10163000F74CA282B382412F572FE62EBA016E21BA
:101640007323672B09F04CC04E29532B41155105CC
:1016500009F446C004871AE0C12ED12CC38AD48A6B
:10166000258A368A4186528633E2D32ED38660910C
:10167000220670912306642B752B609322067093CB
:10168000230666E279EA3EE040FF06C0FB011081D6
:10169000E12FF0E0FC5F00835695479531506F5F76
:1016A0007F4F3111F1CF1CC0C12CD12CB8ECEB2EE7
:1016B000B2E4FB2EFFCEC12CD12CA0ECEA2EAFE37E
:1016C000FA2EF8CE83E08093260443CFF601C08043
:1016D000D180C114D104D1F74E175F0709F048C17A
:1016E0002F5F253009F05ACF8B5F1196893109F0B1
:1016F00050CF40E086E090E059E165E0640FE09172
:101700000038F0E0EE0FFF1FE55BF6450190F08139
:10171000E02D242F30E0E630F10598F4DC01AE1B1B
:10172000BF0B529FF001539FF00D1124E85BF74C63
:1017300074857F7014E0AA0FBB1F1A95E1F77A2B0E
:101740007487E0910138F0E0EE0FFF1FE55CF6458D
:10175000A081B181FD013397339758F4529FF00176
:10176000539FF00D1124E85BF74C7385707F7A2B43
:101770007387E0910238F0E0EC5CF645A081A73079
:1017800058F4529FF001539FF00D1124E85BF74C81
:101790007485707F7A2B7487E0910338F0E0EE0F48
:1017A000FF1FE55BF645A081B181A630B10598F435
:1017B00014E0AA0FBB1F1A95E1F7529FF001539F47
:1017C000F00D1124E85BF74C228120FF04C0238533
:1017D0002F702A2B23874F5F641391CF693109F053
:1017E0008CCF8FB7F8942091CA3A3091CB3A409180
:1017F000CC3A5091CD3A298F3A8F4B8F5C8F8FBF67
:101800008091C33A9091C43A88719927892B09F441
:10181000BFC08091C33A9091C43A84E090E0809335
:10182000C33A9093C43A8091C13A9091C23A9AD8FF
:10183000E091C13AF091C23A309779F0868582FD05
:101840000CC01092C13A1092C23A1092BB3A109258
:10185000BC3A1092C33A1092C43A8091B93A90912E
:10186000BA3A298D3A8D281B390B2431310508F4F9
:1018700059C044968093B93A9093BA3A8091C33A4A
:101880009091C43A892B09F04DC0E0E0F6E08091D8
:10189000C33A9091C43A89799927892B09F042C0BB
:1018A000A091BF3AB091C03A12962D913C911397F6
:1018B000108E80EE20FDF8C023FFF3C088E2808FF9
:1018C00086E8868F1082138283E0838733272093F4
:1018D000BB3A3093BC3A8091C13A9091C23A00979A
:1018E00009F4E5C022E022872483DC0151962D9182
:1018F0003C91529753964D915C915497240F351F0C
:101900001C964C914F7002C0220F331F4A95E2F78C
:10191000248B358B24E030E02093C33A3093C43AD3
:101920000E945D018091C53A813009F4CCC08230BB
:1019300009F414C34091FF3D0091FE3DEEEFFDE33D
:10194000E98BFA8B9F0110E01D8E411709F46FC3DC
:1019500081E090E001965EEF580F501708F063C3E6
:10196000D901A80FB91F5C91ED8DE52BED8FF2CF5A
:10197000408351839E9DA0019F9D500D1124485B83
:10198000574CE481DD24D394DE0EFA01D48243CE99
:101990008091C33A9091C43A029709F049CF1092CE
:1019A000C33A1092C43A0091BF3A1091C03A01155F
:1019B000110509F06FC08091BB3A9091BC3A8062EA
:1019C000819709F062C0F090FE3DE090FF3D0EEF80
:1019D0001DE3B80140E050E0FB0190E080E0D82E2C
:1019E000242F280F30E0B9E1CB2EC29ED001C39E38
:1019F000B00D1124A85BB74C5796AC91A076BB24D0
:101A0000B394A11101C0B12CDF1480F55E1570F5FF
:101A1000A9E1DA2ED29ED001D39EB00D1124A85B8D
:101A2000B74C1F962D913C91509751966D907C909C
:101A30006801C80ED91ED6011296BC92838C948C74
:101A4000A58CB68C6F01BFE7CB0ED11CD6018D9251
:101A50009D92AD92BC921397261937094901330F15
:101A6000AA08BB08838E948EA58EB68E01963496F6
:101A70008530910509F0B3CF4B5F5F5F0B5F1F4F60
:101A80006C5E7F4F493109F0A7CF1092BB3A10929C
:101A9000BC3ACECEC8010E94B204D8010D911C916F
:101AA00086CF22FF3FCF88E2808F168E0BCFCC24CB
:101AB000C394C286148281E090E08093C33A9093ED
:101AC000C43ACD012DCF90912B3F91110EC0809340
:101AD0002B3F298D3A8D4B8D5C8D2093F23E3093B8
:101AE000F33E4093F43E5093F53E4091FF3DE0912C
:101AF000FE3DED8FEEEFFDE3E987FA879F01E0E021
:101B0000F0E04E1791F081E090E001965EEF580F03
:101B1000CD8C5C1530F4D901A80FB91F5C91F52B61
:101B2000F4CFEF5F2B5F3F4FECCF7EEF272E7DE3AF
:101B3000372E812C912C54011D8A1E8A1F8A188EE3
:101B4000198A1A8A1B8A1C8A412C512C32018E1642
:101B500008F06AC01D861E861F86188A10E000E005
:101B6000DD8C0D1508F051C0A985BA85A00FB11FF5
:101B700012968C91882379F0D801AA0FBB1FAA0F67
:101B8000BB1FA20DB31D5B96CD90DD90ED90FC9038
:101B90005E97F7FE03C0C12CD12C76014C0C5D1C66
:101BA0006E1C7F1C2D853E854F855889C701B60167
:101BB0003AD629893A894B895C89260F371F481FF5
:101BC000591F298B3A8B4B8B5C8BA5019401C70164
:101BD000B60129D62D893E894F89588D260F371F8A
:101BE000481F591F2D8B3E8B4F8B588F0F5F1F4FF8
:101BF0004D855E856F8578894F5F5F4F6F4F7F4F53
:101C00004D875E876F87788BABCF5FEF851A950A1C
:101C1000A50AB50A69857A856B5F7F4F69877A87E0
:101C200074E1270E311C93CFFF2339F08AE0481668
:101C30005104610471040CF063C110922C3F1092A6
:101C40002D3F298D3A8D4B8D5C8D2093F23E309344
:101C5000F33E4093F43E5093F53E8091F23E9091D6
:101C6000F33EA091F43EB091F53E498C5A8C6B8CBA
:101C70007C8C481A590A6A0A7B0A33E343165104DA
:101C80006104710408F4ADCDE090E23EF090E33ED3
:101C90008091EA3E9091EB3EE81AF90AF7FE03C004
:101CA000F194E194F1080091E63E1091E73E8091B5
:101CB000EE3E9091EF3E081B190B17FF03C01195E4
:101CC00001951109EE9CC001EF9C900D900D11241F
:101CD000009F9001019F300D300D1124820F931F42
:101CE000843C994008F066C024EA30E74DE75FE3A2
:101CF0006091233F7091243F8091253F9091263F32
:101D00002BD54B015C01B70190E080E06FD42AE055
:101D100037ED43E25CE320D59B01AC01C501B40182
:101D200069D34B015C0120E030E040E05FE310D577
:101D300018162CF0812C912CA12C5FE3B52E8092EB
:101D4000233F9092243FA092253FB092263F24EA61
:101D500030E74DE75FE36091273F7091283F809126
:101D6000293F90912A3FF8D44B015C01B80190E0E3
:101D700080E03CD42AE037ED43E25CE3EDD49B0104
:101D8000AC01C501B40136D34B015C0120E030E069
:101D900040E05FE3DDD418162CF0812C912CA12CAF
:101DA0004FE3B42E8092273F9092283FA092293F84
:101DB000B0922A3FC301B20124E630E040E050E097
:101DC00041D5672B682B692B09F04FC067E67AEA8B
:101DD00088E99BE30E94C002B70188E99BE30E9467
:101DE000CF0263E77AEA88E99BE30E94C002B80168
:101DF00088E99BE30E94CF0269E77AEA88E99BE3DE
:101E00000E94C00260912C3F70912D3F88E99BE3B6
:101E10000E94CF0266E87AEA88E99BE30E94C0024A
:101E20004091233F5091243F6091253F7091263F80
:101E300022E088E99BE30E94D40261E97AEA88E91A
:101E40009BE30E94C0024091273F5091283F609140
:101E5000293F70912A3F22E088E99BE30E94D40247
:101E60006AE088E99BE30E94710220E030E040E4F0
:101E700050E46091233F7091243F8091253F9091E1
:101E8000263F6AD460931B3F70931C3F80931D3F95
:101E900090931E3F20E030E040E450E46091273F03
:101EA0007091283F8091293F90912A3F55D46093AB
:101EB0001F3F7093203F8093213F9093223F80915A
:101EC000E23E9091E33EA091E43EB091E53E8093E6
:101ED000EA3E9093EB3EA093EC3EB093ED3E8091B2
:101EE000E63E9091E73EA091E83EB091E93E8093B6
:101EF000EE3E9093EF3EA093F03EB093F13E71CC56
:101F0000A0E2B3E029893A894B895C89D9D4A3013D
:101F10009201BAD42093E23E3093E33E4093E43EF4
:101F20005093E53EA0E2B3E02D893E894F89588D5C
:101F3000C7D4A3019201A8D42093E63E3093E73E94
:101F40004093E83E5093E93E80912C3F90912D3F85
:101F5000019680932C3F90932D3F7FCE10922B3F84
:101F600080911F3F9091203FA091213FB091223F4F
:101F700040911B3F50911C3F60911D3F70911E3F4F
:101F800049835A836B837C838D839E83AF83B88719
:101F9000FE01319690E080E03DE943E02191DC01D3
:101FA000B3615C91251741F02C9334BF409300102E
:101FB0002091021021FDFCCF01968830910571F728
:101FC0001092C53A80910838882309F40ACC6CE94C
:101FD0007AEA88E99BE30E94C00240911B3F50913E
:101FE0001C3F60911D3F70911E3F22E088E99BE3FA
:101FF0000E94D40262EE79EA88E99BE30E94C00263
:1020000040911F3F5091203F6091213F7091223FAE
:1020100022E088E99BE30E94D4026AE088E99BE31E
:102020000E947102DECB1F5F2B5F3F4F8ECCEEEF25
:10203000FDE319861A861B861C861E8E1F8E18A22B
:1020400019A2412C512C32011D861E861F86188A2A
:10205000812C912C5401C984C11608F077C01D8AC7
:102060001E8A1F8A188E312C212C201608F05BC086
:10207000A989BA89A20DB31D12968C91882309F4FF
:102080004EC0D101AA0FBB1FAA0FBB1FAE0FBF1FAF
:102090005B96CD90DD90ED90FC905E97F7FC3FC095
:1020A0002E8D3F8D48A159A12C153D054E055F058C
:1020B00024F4CE8EDF8EE8A2F9A28C0C9D1CAE1CFF
:1020C000BF1C2D893E894F89588DC701B601ABD3FE
:1020D0002D853E854F855889260F371F481F591F6C
:1020E0002D873E874F87588B29853A854B855C85A0
:1020F000C701B60198D3460E571E681E791E3FEFE2
:10210000231A330A4D895E896F89788D4F5F5F4F3F
:102110006F4F7F4F4D8B5E8B6F8B788FA6CFC12C0F
:10212000D12C7601CACF69857A858B859C856F5FB6
:102130007F4F8F4F9F4F69877A878B879C878989CD
:102140009A890596898B9A8B749685CFED8DEE23AF
:1021500031F0FAE08F169104A104B1046CF41092EE
:10216000F73E1092F83E1092F93E1092FA3E10920D
:10217000F63E1092E13E35CB8E8D9F8DA8A1B9A180
:10218000880F991FAA1FBB1F81608093F63E809124
:10219000E13E811155C0CC24C394C092E13E298D0B
:1021A0003A8D4B8D5C8D2093F23E3093F33E4093FD
:1021B000F43E5093F53EA0E2B3E02D853E854F8579
:1021C00058897ED3A50194015FD369017A01C09239
:1021D000E23ED092E33EE092E43EF092E53EA0E2A1
:1021E000B3E0A30192016CD3A50194014DD32093D8
:1021F000E63E3093E73E4093E83E5093E93EC0927E
:10220000EA3ED092EB3EE092EC3EF092ED3E20931F
:10221000EE3E3093EF3E4093F03E5093F13E80917E
:10222000E23E9091E33E8093F73E9093F83E80919A
:10223000E63E9091E73E8093F93E9093FA3ED1CAF4
:102240008091F23E9091F33EA091F43EB091F53E24
:10225000498D5A8D6B8D7C8D481B590B6A0B7B0BFE
:10226000DB01CA01C397A105B105C8F2A0E2B3E042
:102270002D853E854F85588923D3A501940104D32C
:1022800069017A01A0E2B3E0A301920119D3A5018B
:102290009401FAD280E090E0DC01F7FC12C060E229
:1022A00073E0069FC001079F900D1124092E000CBA
:1022B000AA0BBB0BC816D906EA06FB0614F4D70115
:1022C000C6018093E23E9093E33EA093E43EB09338
:1022D000E53EC12CD12C760157FD12C060E273E0BF
:1022E000169F6001179FD00C11240D2C000CEE08D6
:1022F000FF082C153D054E055F0514F469017A01B0
:10230000C092E63ED092E73EE092E83EF092E93E8F
:102310008090EA3E9090EB3EA090EC3EB090ED3E77
:10232000BC016819790977FF03C07195619571093E
:10233000072E000C880B990B59D120911B3F30912F
:102340001C3F40911D3F50911E3FB8D087FF08C0F1
:102350008092E23E9092E33EA092E43EB092E53E4F
:102360008090EE3E9090EF3EA090F03EB090F13E17
:10237000B6016819790977FF03C0719561957109F4
:10238000072E000C880B990B31D120911F3F309103
:10239000203F4091213F5091223F90D087FF08C0BD
:1023A0008092E63E9092E73EA092E83EB092E93EEF
:1023B0008091E23E9091E33EA091E43EB091E53EF3
:1023C0008093EA3E9093EB3EA093EC3EB093ED3EBB
:1023D0008091E63E9091E73EA091E83EB091E93EC3
:1023E0008093EE3E9093EF3EA093F03EB093F13E8B
:1023F00016CF5058BB27AA270ED070C161D130F03C
:1024000066D120F031F49F3F11F41EF456C10EF452
:10241000E095E7FB4CC1E92F72D180F3BA17620750
:1024200073078407950718F071F49EF58AC10EF4BE
:10243000E0950B2EBA2FA02D0B01B90190010C01D4
:10244000CA01A0011124FF27591B99F0593F50F4EC
:10245000503E68F11A16F040A22F232F342F442744
:10246000585FF3CF469537952795A795F04053953C
:10247000C9F77EF41F16BA0B620B730B840BBAF00C
:102480009150A1F0FF0FBB1F661F771F881FC2F777
:102490000EC0BA0F621F731F841F48F4879577958B
:1024A0006795B795F7959E3F08F0B3CF9395880F42
:1024B00008F09927EE0F979587950895D4D008F4E2
:1024C00081E008950CD00AC102D140F0F9D030F07B
:1024D00021F45F3F19F0EBC0511134C1EEC00FD1B0
:1024E00098F39923C9F35523B1F3951B550BBB27DB
:1024F000AA2762177307840738F09F5F5F4F220F88
:10250000331F441FAA1FA9F333D00E2E3AF0E0E880
:1025100030D091505040E695001CCAF729D0FE2FCC
:1025200027D0660F771F881FBB1F2617370748075E
:10253000AB07B0E809F0BB0B802DBF01FF27935814
:102540005F4F2AF09E3F510568F0B1C0FBC05F3F6E
:10255000ECF3983EDCF3869577956795B795F795FC
:102560009F5FC9F7880F911D9695879597F90895F4
:10257000E1E0660F771F881FBB1F62177307840790
:10258000BA0720F0621B730B840BBA0BEE1F88F79F
:10259000E0950895BCD088F09F5790F0B92F992707
:1025A000B751A0F0D1F0660F771F881F991F1AF05E
:1025B000BA95C9F712C0B13081F0C3D0B1E0089527
:1025C000C0C0672F782F8827B85F39F0B93FCCF3A8
:1025D000869577956795B395D9F73EF49095809554
:1025E000709561957F4F8F4F9F4F0895E89409C074
:1025F00097FB3EF490958095709561957F4F8F4F36
:102600009F4F9923A9F0F92F96E9BB279395F6954B
:10261000879577956795B795F111F8CFFAF4BB0FC9
:1026200011F460FF1BC06F5F7F4F8F4F9F4F16C02D
:10263000882311F096E911C0772321F09EE8872FB7
:10264000762F05C0662371F096E8862F70E060E073
:102650002AF09A95660F771F881FDAF7880F9695EC
:10266000879597F90895990F0008550FAA0BE0E890
:10267000FEEF16161706E807F907C0F01216130644
:10268000E407F50798F0621B730B840B950B39F484
:102690000A2661F0232B242B252B21F408950A26EA
:1026A00009F4A140A6958FEF811D811D089597F92A
:1026B0009F6780E870E060E008959FEF80EC0895E8
:1026C00000240A9416161706180609060895002411
:1026D0000A9412161306140605060895092E03948B
:1026E000000C11F4882352F0BB0F40F4BF2B11F4FF
:1026F00060FF04C06F5F7F4F8F4F9F4F089557FD5E
:102700009058440F551F59F05F3F71F04795880F5F
:1027100097FB991F61F09F3F79F0879508951216F6
:1027200013061406551FF2CF4695F1DF08C01616A2
:1027300017061806991FF1CF869571056105089453
:102740000895E894BB2766277727CB0197F908956A
:102750008ADF08F48FEF08950BD0C0CFB1DF28F0E7
:10276000B6DF18F0952309F0A2CFA7CF1124EACF46
:10277000C6DFA0F3959FD1F3950F50E0551F629FE0
:10278000F001729FBB27F00DB11D639FAA27F00DCA
:10279000B11DAA1F649F6627B00DA11D661F829FF1
:1027A0002227B00DA11D621F739FB00DA11D621FD6
:1027B000839FA00D611D221F749F3327A00D611DF3
:1027C000231F849F600D211D822F762F6A2F1124D5
:1027D0009F5750408AF0E1F088234AF0EE0FFF1F28
:1027E000BB1F661F771F881F91505040A9F79E3F5F
:1027F000510570F05CCFA6CF5F3FECF3983EDCF361
:10280000869577956795B795F795E7959F5FC1F79B
:10281000FE2B880F911D9695879597F9089523DFD4
:10282000880B990B0895DB018F939F9349D0BF913B
:10283000AF91A29F800D911DA39F900DB29F900D0F
:1028400011240895A1E21A2EAA1BBB1BFD010DC085
:10285000AA1FBB1FEE1FFF1FA217B307E407F50750
:1028600020F0A21BB30BE40BF50B661F771F881F2C
:10287000991F1A9469F760957095809590959B01C2
:10288000AC01BD01CF010895052E97FB16F400940D
:102890000FD057FD05D0D6DF07FC02D046F408C0A4
:1028A00050954095309521953F4F4F4F5F4F08957C
:1028B00090958095709561957F4F8F4F9F4F0895AC
:1028C0000FD0A59F900DB49F900DA49F800D911DDA
:1028D00011240895EE0FFF1F0590F491E02D099447
:1028E000A29FB001B39FC001A39F700D811D112451
:1028F000911DB29F700D811D1124911D0895FB0142
:10290000DC014150504048F001900D920020C9F781
:1029100001C01D9241505040E0F70895F894FFCF58
:102920003F1C0B050301141516173130505152533B
:10293000545535340001020304050600000100026D
:10294000000300040005000600070000000100026B
:10295000000300040005000B0C0D0504010002003B
:1029600004000800001000200000000010002000FB
:102970004000800000010002000000000000000094
:102980000001020A0900000000FD007400A10049D6
:1029900001D200B000C40000000000F101030227D2
:1029A00002BD01EB01D901C501000000002A02743B
:1029B00000270226022702270227026E616E0069A5
:1029C0006E66006F7666002E004F4E0A004F464638
:1029D0000A005345545F5450504152414D3A2078BB
:1029E0003D002C20793D005345545F4445425547F6
:1029F0002000746F6F206C6F772000746F6F2068F9
:102A0000696768200074696D656F75742000746F64
:102A100075636865643A0072656C65617365643AF4
:102A2000004745545F545052415756414C0A0047A5
:102A300045545F5450504152414D0A004D6172203F
:102A4000323720323032362031383A31333A323070
:102A5000005B445D205265616420646561647A6F47
:102A60006E653A20783D005B445D2063616C2064B4
:102A7000783D002C2064793D002C20656D615F63FA
:102A80006F756E743D002C206E6F6973655F783DC5
:102A9000002C206E6F6973655F793D005B445D209B
:0D2AA000646561647A6F6E652C20783D00DE
:0A2AAD000003040200000000010015
:00000001FF
